(bitcoin_env) nipun-samal@nipun-samal-HP-Pavilion-Laptop-14-ec1xxx:~/Downloads$ python code1mod.py
Connected to Bitcoin Core RPC
DEBUG:BitcoinRPC:-1-> loadwallet ["mywallet"]
DEBUG:BitcoinRPC:<-- {"result":null,"error":{"code":-35,"message":"Wallet \"mywallet\" is already loaded."},"id":1}

DEBUG:BitcoinRPC:-2-> getnewaddress ["", "legacy"]
DEBUG:BitcoinRPC:<-2- "moFFJr31DfkuKJMhGJVRLXd4TBw8XPaHbT"
DEBUG:BitcoinRPC:-3-> getnewaddress ["", "legacy"]
DEBUG:BitcoinRPC:<-3- "n2CTex4hHhmMPK3MGD5SyjKopHGS8MkY1Y"
DEBUG:BitcoinRPC:-4-> getnewaddress ["", "legacy"]
DEBUG:BitcoinRPC:<-4- "mj5mFK1PmTJS4NsWCYgvNFwyoPHFs3CCqi"
Address A: moFFJr31DfkuKJMhGJVRLXd4TBw8XPaHbT
Address B: n2CTex4hHhmMPK3MGD5SyjKopHGS8MkY1Y
Address C: mj5mFK1PmTJS4NsWCYgvNFwyoPHFs3CCqi

DEBUG:BitcoinRPC:-5-> sendtoaddress ["moFFJr31DfkuKJMhGJVRLXd4TBw8XPaHbT", 1.0]
DEBUG:BitcoinRPC:<-5- "591e8b95fc28392c43e87d99acb1d55d499e189678c18f224bd2b3acafe4f4a2"
Funding transaction: 591e8b95fc28392c43e87d99acb1d55d499e189678c18f224bd2b3acafe4f4a2

DEBUG:BitcoinRPC:-6-> getnewaddress []
DEBUG:BitcoinRPC:<-6- "bcrt1q7hmylk2u4gws6nchme4k4dh7p5ve0z2xhk2mf5"
DEBUG:BitcoinRPC:-7-> generatetoaddress [1, "bcrt1q7hmylk2u4gws6nchme4k4dh7p5ve0z2xhk2mf5"]
DEBUG:BitcoinRPC:<-7- ["059440387eae0895891b9c3ffb6bf40aa5efc7d1c612d1f0f48b57f7d054e011"]
DEBUG:BitcoinRPC:-8-> listunspent [1, 9999999, ["moFFJr31DfkuKJMhGJVRLXd4TBw8XPaHbT"]]
DEBUG:BitcoinRPC:<-8- [{"txid": "591e8b95fc28392c43e87d99acb1d55d499e189678c18f224bd2b3acafe4f4a2", "vout": 1, "address": "moFFJr31DfkuKJMhGJVRLXd4TBw8XPaHbT", "label": "", "scriptPubKey": "76a91454c88d9c796cc9e6ddf4af4215506c6821376c0f88ac", "amount": 1.0, "confirmations": 1, "spendable": true, "solvable": true, "desc": "pkh([d48c3dee/44h/1h/0h/0/0]0298d8bc16dff13eac69fed57f0eac95e4d1695d654222a9380ed181cd9391291f)#2nj4czw0", "parent_descs": ["pkh(tpubD6NzVbkrYhZ4YTiPYoTnmQn3VwYXBcgPM9dENFpsijkoiReXJB4WM77q89ZYVW9f253r1WkACKMsRWQ6Syyj9c6r1iTAWxu9s6t1aScxm3D/44h/1h/0h/0/*)#wqquptwx"], "safe": true}]
UTXO for Address A: {'txid': '591e8b95fc28392c43e87d99acb1d55d499e189678c18f224bd2b3acafe4f4a2', 'vout': 1, 'address': 'moFFJr31DfkuKJMhGJVRLXd4TBw8XPaHbT', 'label': '', 'scriptPubKey': '76a91454c88d9c796cc9e6ddf4af4215506c6821376c0f88ac', 'amount': Decimal('1.00000000'), 'confirmations': 1, 'spendable': True, 'solvable': True, 'desc': 'pkh([d48c3dee/44h/1h/0h/0/0]0298d8bc16dff13eac69fed57f0eac95e4d1695d654222a9380ed181cd9391291f)#2nj4czw0', 'parent_descs': ['pkh(tpubD6NzVbkrYhZ4YTiPYoTnmQn3VwYXBcgPM9dENFpsijkoiReXJB4WM77q89ZYVW9f253r1WkACKMsRWQ6Syyj9c6r1iTAWxu9s6t1aScxm3D/44h/1h/0h/0/*)#wqquptwx'], 'safe': True}

DEBUG:BitcoinRPC:-9-> createrawtransaction [[{"txid": "591e8b95fc28392c43e87d99acb1d55d499e189678c18f224bd2b3acafe4f4a2", "vout": 1}], {"n2CTex4hHhmMPK3MGD5SyjKopHGS8MkY1Y": 0.5, "moFFJr31DfkuKJMhGJVRLXd4TBw8XPaHbT": 0.4999}]
DEBUG:BitcoinRPC:<-9- "0200000001a2f4e4afacb3d24b228fc17896189e495dd5b1ac997de8432c3928fc958b1e590100000000fdffffff0280f0fa02000000001976a914e2db3f359ce01b1db3b69eb5a9f631f38af5ea1e88ac70c9fa02000000001976a91454c88d9c796cc9e6ddf4af4215506c6821376c0f88ac00000000"
DEBUG:BitcoinRPC:-10-> decoderawtransaction ["0200000001a2f4e4afacb3d24b228fc17896189e495dd5b1ac997de8432c3928fc958b1e590100000000fdffffff0280f0fa02000000001976a914e2db3f359ce01b1db3b69eb5a9f631f38af5ea1e88ac70c9fa02000000001976a91454c88d9c796cc9e6ddf4af4215506c6821376c0f88ac00000000"]
DEBUG:BitcoinRPC:<-10- {"txid": "8f8c9522ee24ef14accaaa303a1dc0f488468f50c33c8490fe86681bdc8f3e7a", "hash": "8f8c9522ee24ef14accaaa303a1dc0f488468f50c33c8490fe86681bdc8f3e7a", "version": 2, "size": 119, "vsize": 119, "weight": 476, "locktime": 0, "vin": [{"txid": "591e8b95fc28392c43e87d99acb1d55d499e189678c18f224bd2b3acafe4f4a2", "vout": 1, "scriptSig": {"asm": "", "hex": ""}, "sequence": 4294967293}], "vout": [{"value": 0.5, "n": 0, "scriptPubKey": {"asm": "OP_DUP OP_HASH160 e2db3f359ce01b1db3b69eb5a9f631f38af5ea1e OP_EQUALVERIFY OP_CHECKSIG", "desc": "addr(n2CTex4hHhmMPK3MGD5SyjKopHGS8MkY1Y)#wuvv5a75", "hex": "76a914e2db3f359ce01b1db3b69eb5a9f631f38af5ea1e88ac", "address": "n2CTex4hHhmMPK3MGD5SyjKopHGS8MkY1Y", "type": "pubkeyhash"}}, {"value": 0.4999, "n": 1, "scriptPubKey": {"asm": "OP_DUP OP_HASH160 54c88d9c796cc9e6ddf4af4215506c6821376c0f OP_EQUALVERIFY OP_CHECKSIG", "desc": "addr(moFFJr31DfkuKJMhGJVRLXd4TBw8XPaHbT)#82d0sdpe", "hex": "76a91454c88d9c796cc9e6ddf4af4215506c6821376c0f88ac", "address": "moFFJr31DfkuKJMhGJVRLXd4TBw8XPaHbT", "type": "pubkeyhash"}}]}
Decoded transaction from A to B:
{'txid': '8f8c9522ee24ef14accaaa303a1dc0f488468f50c33c8490fe86681bdc8f3e7a', 'hash': '8f8c9522ee24ef14accaaa303a1dc0f488468f50c33c8490fe86681bdc8f3e7a', 'version': 2, 'size': 119, 'vsize': 119, 'weight': 476, 'locktime': 0, 'vin': [{'txid': '591e8b95fc28392c43e87d99acb1d55d499e189678c18f224bd2b3acafe4f4a2', 'vout': 1, 'scriptSig': {'asm': '', 'hex': ''}, 'sequence': 4294967293}], 'vout': [{'value': Decimal('0.50000000'), 'n': 0, 'scriptPubKey': {'asm': 'OP_DUP OP_HASH160 e2db3f359ce01b1db3b69eb5a9f631f38af5ea1e OP_EQUALVERIFY OP_CHECKSIG', 'desc': 'addr(n2CTex4hHhmMPK3MGD5SyjKopHGS8MkY1Y)#wuvv5a75', 'hex': '76a914e2db3f359ce01b1db3b69eb5a9f631f38af5ea1e88ac', 'address': 'n2CTex4hHhmMPK3MGD5SyjKopHGS8MkY1Y', 'type': 'pubkeyhash'}}, {'value': Decimal('0.49990000'), 'n': 1, 'scriptPubKey': {'asm': 'OP_DUP OP_HASH160 54c88d9c796cc9e6ddf4af4215506c6821376c0f OP_EQUALVERIFY OP_CHECKSIG', 'desc': 'addr(moFFJr31DfkuKJMhGJVRLXd4TBw8XPaHbT)#82d0sdpe', 'hex': '76a91454c88d9c796cc9e6ddf4af4215506c6821376c0f88ac', 'address': 'moFFJr31DfkuKJMhGJVRLXd4TBw8XPaHbT', 'type': 'pubkeyhash'}}]} 

ScriptPubKey for Address B: 76a914e2db3f359ce01b1db3b69eb5a9f631f38af5ea1e88ac

DEBUG:BitcoinRPC:-11-> signrawtransactionwithwallet ["0200000001a2f4e4afacb3d24b228fc17896189e495dd5b1ac997de8432c3928fc958b1e590100000000fdffffff0280f0fa02000000001976a914e2db3f359ce01b1db3b69eb5a9f631f38af5ea1e88ac70c9fa02000000001976a91454c88d9c796cc9e6ddf4af4215506c6821376c0f88ac00000000"]
DEBUG:BitcoinRPC:<-11- {"hex": "0200000001a2f4e4afacb3d24b228fc17896189e495dd5b1ac997de8432c3928fc958b1e59010000006a47304402204ce7f0bcc3fc2f885024752b392fef704d72741ec332cdc8b1e256be3d38fc56022049ec7b0aa816b079f33bcf784c504ec3859224a9caf0fb0d873cf9e03854794501210298d8bc16dff13eac69fed57f0eac95e4d1695d654222a9380ed181cd9391291ffdffffff0280f0fa02000000001976a914e2db3f359ce01b1db3b69eb5a9f631f38af5ea1e88ac70c9fa02000000001976a91454c88d9c796cc9e6ddf4af4215506c6821376c0f88ac00000000", "complete": true}
Transaction successfully signed

DEBUG:BitcoinRPC:-12-> sendrawtransaction ["0200000001a2f4e4afacb3d24b228fc17896189e495dd5b1ac997de8432c3928fc958b1e59010000006a47304402204ce7f0bcc3fc2f885024752b392fef704d72741ec332cdc8b1e256be3d38fc56022049ec7b0aa816b079f33bcf784c504ec3859224a9caf0fb0d873cf9e03854794501210298d8bc16dff13eac69fed57f0eac95e4d1695d654222a9380ed181cd9391291ffdffffff0280f0fa02000000001976a914e2db3f359ce01b1db3b69eb5a9f631f38af5ea1e88ac70c9fa02000000001976a91454c88d9c796cc9e6ddf4af4215506c6821376c0f88ac00000000"]
DEBUG:BitcoinRPC:<-12- "3048109b7c2fbee5d7e901d750d6e7b8f9f335c6eb1877a544af76dd2515f4d9"
Transaction A to B: 3048109b7c2fbee5d7e901d750d6e7b8f9f335c6eb1877a544af76dd2515f4d9

DEBUG:BitcoinRPC:-13-> getnewaddress []
DEBUG:BitcoinRPC:<-13- "bcrt1qh6ce777ywmcqz9662u8eul0x6mwh0m8c46gms5"
DEBUG:BitcoinRPC:-14-> generatetoaddress [1, "bcrt1qh6ce777ywmcqz9662u8eul0x6mwh0m8c46gms5"]
DEBUG:BitcoinRPC:<-14- ["3388e1a511fd61b3f61b81d2ac4fe71e01e0288ff55803b3bfc8cc043f488bb2"]
DEBUG:BitcoinRPC:-15-> listunspent [1, 9999999, ["n2CTex4hHhmMPK3MGD5SyjKopHGS8MkY1Y"]]
DEBUG:BitcoinRPC:<-15- [{"txid": "3048109b7c2fbee5d7e901d750d6e7b8f9f335c6eb1877a544af76dd2515f4d9", "vout": 0, "address": "n2CTex4hHhmMPK3MGD5SyjKopHGS8MkY1Y", "label": "", "scriptPubKey": "76a914e2db3f359ce01b1db3b69eb5a9f631f38af5ea1e88ac", "amount": 0.5, "confirmations": 1, "spendable": true, "solvable": true, "desc": "pkh([d48c3dee/44h/1h/0h/0/1]03a1f80d1fdf46751ac19be52c30adfc62b681d7a625e35b93f525e50eeebd7d4a)#7rlleftz", "parent_descs": ["pkh(tpubD6NzVbkrYhZ4YTiPYoTnmQn3VwYXBcgPM9dENFpsijkoiReXJB4WM77q89ZYVW9f253r1WkACKMsRWQ6Syyj9c6r1iTAWxu9s6t1aScxm3D/44h/1h/0h/0/*)#wqquptwx"], "safe": true}]
UTXO for Address B: {'txid': '3048109b7c2fbee5d7e901d750d6e7b8f9f335c6eb1877a544af76dd2515f4d9', 'vout': 0, 'address': 'n2CTex4hHhmMPK3MGD5SyjKopHGS8MkY1Y', 'label': '', 'scriptPubKey': '76a914e2db3f359ce01b1db3b69eb5a9f631f38af5ea1e88ac', 'amount': Decimal('0.50000000'), 'confirmations': 1, 'spendable': True, 'solvable': True, 'desc': 'pkh([d48c3dee/44h/1h/0h/0/1]03a1f80d1fdf46751ac19be52c30adfc62b681d7a625e35b93f525e50eeebd7d4a)#7rlleftz', 'parent_descs': ['pkh(tpubD6NzVbkrYhZ4YTiPYoTnmQn3VwYXBcgPM9dENFpsijkoiReXJB4WM77q89ZYVW9f253r1WkACKMsRWQ6Syyj9c6r1iTAWxu9s6t1aScxm3D/44h/1h/0h/0/*)#wqquptwx'], 'safe': True}

DEBUG:BitcoinRPC:-16-> createrawtransaction [[{"txid": "3048109b7c2fbee5d7e901d750d6e7b8f9f335c6eb1877a544af76dd2515f4d9", "vout": 0}], {"mj5mFK1PmTJS4NsWCYgvNFwyoPHFs3CCqi": 0.25, "n2CTex4hHhmMPK3MGD5SyjKopHGS8MkY1Y": 0.2499}]
DEBUG:BitcoinRPC:<-16- "0200000001d9f41525dd76af44a57718ebc635f3f9b8e7d650d701e9d7e5be2f7c9b1048300000000000fdffffff0240787d01000000001976a914271ce1dcfc0152e07515fe8fb94719eb53301aa888ac30517d01000000001976a914e2db3f359ce01b1db3b69eb5a9f631f38af5ea1e88ac00000000"
DEBUG:BitcoinRPC:-17-> decoderawtransaction ["0200000001d9f41525dd76af44a57718ebc635f3f9b8e7d650d701e9d7e5be2f7c9b1048300000000000fdffffff0240787d01000000001976a914271ce1dcfc0152e07515fe8fb94719eb53301aa888ac30517d01000000001976a914e2db3f359ce01b1db3b69eb5a9f631f38af5ea1e88ac00000000"]
DEBUG:BitcoinRPC:<-17- {"txid": "2376ac1e90e2e20ab69ad94e19e62fff9b5c1e379ebfd76a63ac514b3d81e043", "hash": "2376ac1e90e2e20ab69ad94e19e62fff9b5c1e379ebfd76a63ac514b3d81e043", "version": 2, "size": 119, "vsize": 119, "weight": 476, "locktime": 0, "vin": [{"txid": "3048109b7c2fbee5d7e901d750d6e7b8f9f335c6eb1877a544af76dd2515f4d9", "vout": 0, "scriptSig": {"asm": "", "hex": ""}, "sequence": 4294967293}], "vout": [{"value": 0.25, "n": 0, "scriptPubKey": {"asm": "OP_DUP OP_HASH160 271ce1dcfc0152e07515fe8fb94719eb53301aa8 OP_EQUALVERIFY OP_CHECKSIG", "desc": "addr(mj5mFK1PmTJS4NsWCYgvNFwyoPHFs3CCqi)#m6s4pkfm", "hex": "76a914271ce1dcfc0152e07515fe8fb94719eb53301aa888ac", "address": "mj5mFK1PmTJS4NsWCYgvNFwyoPHFs3CCqi", "type": "pubkeyhash"}}, {"value": 0.2499, "n": 1, "scriptPubKey": {"asm": "OP_DUP OP_HASH160 e2db3f359ce01b1db3b69eb5a9f631f38af5ea1e OP_EQUALVERIFY OP_CHECKSIG", "desc": "addr(n2CTex4hHhmMPK3MGD5SyjKopHGS8MkY1Y)#wuvv5a75", "hex": "76a914e2db3f359ce01b1db3b69eb5a9f631f38af5ea1e88ac", "address": "n2CTex4hHhmMPK3MGD5SyjKopHGS8MkY1Y", "type": "pubkeyhash"}}]}
Decoded transaction from B to C:
{'txid': '2376ac1e90e2e20ab69ad94e19e62fff9b5c1e379ebfd76a63ac514b3d81e043', 'hash': '2376ac1e90e2e20ab69ad94e19e62fff9b5c1e379ebfd76a63ac514b3d81e043', 'version': 2, 'size': 119, 'vsize': 119, 'weight': 476, 'locktime': 0, 'vin': [{'txid': '3048109b7c2fbee5d7e901d750d6e7b8f9f335c6eb1877a544af76dd2515f4d9', 'vout': 0, 'scriptSig': {'asm': '', 'hex': ''}, 'sequence': 4294967293}], 'vout': [{'value': Decimal('0.25000000'), 'n': 0, 'scriptPubKey': {'asm': 'OP_DUP OP_HASH160 271ce1dcfc0152e07515fe8fb94719eb53301aa8 OP_EQUALVERIFY OP_CHECKSIG', 'desc': 'addr(mj5mFK1PmTJS4NsWCYgvNFwyoPHFs3CCqi)#m6s4pkfm', 'hex': '76a914271ce1dcfc0152e07515fe8fb94719eb53301aa888ac', 'address': 'mj5mFK1PmTJS4NsWCYgvNFwyoPHFs3CCqi', 'type': 'pubkeyhash'}}, {'value': Decimal('0.24990000'), 'n': 1, 'scriptPubKey': {'asm': 'OP_DUP OP_HASH160 e2db3f359ce01b1db3b69eb5a9f631f38af5ea1e OP_EQUALVERIFY OP_CHECKSIG', 'desc': 'addr(n2CTex4hHhmMPK3MGD5SyjKopHGS8MkY1Y)#wuvv5a75', 'hex': '76a914e2db3f359ce01b1db3b69eb5a9f631f38af5ea1e88ac', 'address': 'n2CTex4hHhmMPK3MGD5SyjKopHGS8MkY1Y', 'type': 'pubkeyhash'}}]} 

DEBUG:BitcoinRPC:-18-> signrawtransactionwithwallet ["0200000001d9f41525dd76af44a57718ebc635f3f9b8e7d650d701e9d7e5be2f7c9b1048300000000000fdffffff0240787d01000000001976a914271ce1dcfc0152e07515fe8fb94719eb53301aa888ac30517d01000000001976a914e2db3f359ce01b1db3b69eb5a9f631f38af5ea1e88ac00000000"]
DEBUG:BitcoinRPC:<-18- {"hex": "0200000001d9f41525dd76af44a57718ebc635f3f9b8e7d650d701e9d7e5be2f7c9b104830000000006a4730440220487af36e6e36125c07dd09b8b65fe64c6af686e51c656fc4577b649acb966c1a02200c64da187aa96e92037b11d60ae85fe26950dd64e088d14db2ccd010bb4311a6012103a1f80d1fdf46751ac19be52c30adfc62b681d7a625e35b93f525e50eeebd7d4afdffffff0240787d01000000001976a914271ce1dcfc0152e07515fe8fb94719eb53301aa888ac30517d01000000001976a914e2db3f359ce01b1db3b69eb5a9f631f38af5ea1e88ac00000000", "complete": true}
Transaction successfully signed

DEBUG:BitcoinRPC:-19-> decoderawtransaction ["0200000001d9f41525dd76af44a57718ebc635f3f9b8e7d650d701e9d7e5be2f7c9b104830000000006a4730440220487af36e6e36125c07dd09b8b65fe64c6af686e51c656fc4577b649acb966c1a02200c64da187aa96e92037b11d60ae85fe26950dd64e088d14db2ccd010bb4311a6012103a1f80d1fdf46751ac19be52c30adfc62b681d7a625e35b93f525e50eeebd7d4afdffffff0240787d01000000001976a914271ce1dcfc0152e07515fe8fb94719eb53301aa888ac30517d01000000001976a914e2db3f359ce01b1db3b69eb5a9f631f38af5ea1e88ac00000000"]
DEBUG:BitcoinRPC:<-19- {"txid": "e12541902639b5992110235a9b538477b650745ef7041385cf1769222c72d860", "hash": "e12541902639b5992110235a9b538477b650745ef7041385cf1769222c72d860", "version": 2, "size": 225, "vsize": 225, "weight": 900, "locktime": 0, "vin": [{"txid": "3048109b7c2fbee5d7e901d750d6e7b8f9f335c6eb1877a544af76dd2515f4d9", "vout": 0, "scriptSig": {"asm": "30440220487af36e6e36125c07dd09b8b65fe64c6af686e51c656fc4577b649acb966c1a02200c64da187aa96e92037b11d60ae85fe26950dd64e088d14db2ccd010bb4311a6[ALL] 03a1f80d1fdf46751ac19be52c30adfc62b681d7a625e35b93f525e50eeebd7d4a", "hex": "4730440220487af36e6e36125c07dd09b8b65fe64c6af686e51c656fc4577b649acb966c1a02200c64da187aa96e92037b11d60ae85fe26950dd64e088d14db2ccd010bb4311a6012103a1f80d1fdf46751ac19be52c30adfc62b681d7a625e35b93f525e50eeebd7d4a"}, "sequence": 4294967293}], "vout": [{"value": 0.25, "n": 0, "scriptPubKey": {"asm": "OP_DUP OP_HASH160 271ce1dcfc0152e07515fe8fb94719eb53301aa8 OP_EQUALVERIFY OP_CHECKSIG", "desc": "addr(mj5mFK1PmTJS4NsWCYgvNFwyoPHFs3CCqi)#m6s4pkfm", "hex": "76a914271ce1dcfc0152e07515fe8fb94719eb53301aa888ac", "address": "mj5mFK1PmTJS4NsWCYgvNFwyoPHFs3CCqi", "type": "pubkeyhash"}}, {"value": 0.2499, "n": 1, "scriptPubKey": {"asm": "OP_DUP OP_HASH160 e2db3f359ce01b1db3b69eb5a9f631f38af5ea1e OP_EQUALVERIFY OP_CHECKSIG", "desc": "addr(n2CTex4hHhmMPK3MGD5SyjKopHGS8MkY1Y)#wuvv5a75", "hex": "76a914e2db3f359ce01b1db3b69eb5a9f631f38af5ea1e88ac", "address": "n2CTex4hHhmMPK3MGD5SyjKopHGS8MkY1Y", "type": "pubkeyhash"}}]}
Decoded signed transaction from B to C:
{'txid': 'e12541902639b5992110235a9b538477b650745ef7041385cf1769222c72d860', 'hash': 'e12541902639b5992110235a9b538477b650745ef7041385cf1769222c72d860', 'version': 2, 'size': 225, 'vsize': 225, 'weight': 900, 'locktime': 0, 'vin': [{'txid': '3048109b7c2fbee5d7e901d750d6e7b8f9f335c6eb1877a544af76dd2515f4d9', 'vout': 0, 'scriptSig': {'asm': '30440220487af36e6e36125c07dd09b8b65fe64c6af686e51c656fc4577b649acb966c1a02200c64da187aa96e92037b11d60ae85fe26950dd64e088d14db2ccd010bb4311a6[ALL] 03a1f80d1fdf46751ac19be52c30adfc62b681d7a625e35b93f525e50eeebd7d4a', 'hex': '4730440220487af36e6e36125c07dd09b8b65fe64c6af686e51c656fc4577b649acb966c1a02200c64da187aa96e92037b11d60ae85fe26950dd64e088d14db2ccd010bb4311a6012103a1f80d1fdf46751ac19be52c30adfc62b681d7a625e35b93f525e50eeebd7d4a'}, 'sequence': 4294967293}], 'vout': [{'value': Decimal('0.25000000'), 'n': 0, 'scriptPubKey': {'asm': 'OP_DUP OP_HASH160 271ce1dcfc0152e07515fe8fb94719eb53301aa8 OP_EQUALVERIFY OP_CHECKSIG', 'desc': 'addr(mj5mFK1PmTJS4NsWCYgvNFwyoPHFs3CCqi)#m6s4pkfm', 'hex': '76a914271ce1dcfc0152e07515fe8fb94719eb53301aa888ac', 'address': 'mj5mFK1PmTJS4NsWCYgvNFwyoPHFs3CCqi', 'type': 'pubkeyhash'}}, {'value': Decimal('0.24990000'), 'n': 1, 'scriptPubKey': {'asm': 'OP_DUP OP_HASH160 e2db3f359ce01b1db3b69eb5a9f631f38af5ea1e OP_EQUALVERIFY OP_CHECKSIG', 'desc': 'addr(n2CTex4hHhmMPK3MGD5SyjKopHGS8MkY1Y)#wuvv5a75', 'hex': '76a914e2db3f359ce01b1db3b69eb5a9f631f38af5ea1e88ac', 'address': 'n2CTex4hHhmMPK3MGD5SyjKopHGS8MkY1Y', 'type': 'pubkeyhash'}}]} 

ScriptSig for Address B to C: 4730440220487af36e6e36125c07dd09b8b65fe64c6af686e51c656fc4577b649acb966c1a02200c64da187aa96e92037b11d60ae85fe26950dd64e088d14db2ccd010bb4311a6012103a1f80d1fdf46751ac19be52c30adfc62b681d7a625e35b93f525e50eeebd7d4a

DEBUG:BitcoinRPC:-20-> sendrawtransaction ["0200000001d9f41525dd76af44a57718ebc635f3f9b8e7d650d701e9d7e5be2f7c9b104830000000006a4730440220487af36e6e36125c07dd09b8b65fe64c6af686e51c656fc4577b649acb966c1a02200c64da187aa96e92037b11d60ae85fe26950dd64e088d14db2ccd010bb4311a6012103a1f80d1fdf46751ac19be52c30adfc62b681d7a625e35b93f525e50eeebd7d4afdffffff0240787d01000000001976a914271ce1dcfc0152e07515fe8fb94719eb53301aa888ac30517d01000000001976a914e2db3f359ce01b1db3b69eb5a9f631f38af5ea1e88ac00000000"]
DEBUG:BitcoinRPC:<-20- "e12541902639b5992110235a9b538477b650745ef7041385cf1769222c72d860"
Transaction B to C: e12541902639b5992110235a9b538477b650745ef7041385cf1769222c72d860

DEBUG:BitcoinRPC:-21-> getnewaddress []
DEBUG:BitcoinRPC:<-21- "bcrt1qfwkgwzh9ghtu83v39cfhfpj6yql9gkv9r06tes"
DEBUG:BitcoinRPC:-22-> generatetoaddress [1, "bcrt1qfwkgwzh9ghtu83v39cfhfpj6yql9gkv9r06tes"]
DEBUG:BitcoinRPC:<-22- ["7d5f3a1d3a63dcec7c8a849f9cc2a636c6bd8a0e9f1a077581e427d5e9a53474"]
DEBUG:BitcoinRPC:-23-> getrawtransaction ["e12541902639b5992110235a9b538477b650745ef7041385cf1769222c72d860", true]
DEBUG:BitcoinRPC:<-23- {"txid": "e12541902639b5992110235a9b538477b650745ef7041385cf1769222c72d860", "hash": "e12541902639b5992110235a9b538477b650745ef7041385cf1769222c72d860", "version": 2, "size": 225, "vsize": 225, "weight": 900, "locktime": 0, "vin": [{"txid": "3048109b7c2fbee5d7e901d750d6e7b8f9f335c6eb1877a544af76dd2515f4d9", "vout": 0, "scriptSig": {"asm": "30440220487af36e6e36125c07dd09b8b65fe64c6af686e51c656fc4577b649acb966c1a02200c64da187aa96e92037b11d60ae85fe26950dd64e088d14db2ccd010bb4311a6[ALL] 03a1f80d1fdf46751ac19be52c30adfc62b681d7a625e35b93f525e50eeebd7d4a", "hex": "4730440220487af36e6e36125c07dd09b8b65fe64c6af686e51c656fc4577b649acb966c1a02200c64da187aa96e92037b11d60ae85fe26950dd64e088d14db2ccd010bb4311a6012103a1f80d1fdf46751ac19be52c30adfc62b681d7a625e35b93f525e50eeebd7d4a"}, "sequence": 4294967293}], "vout": [{"value": 0.25, "n": 0, "scriptPubKey": {"asm": "OP_DUP OP_HASH160 271ce1dcfc0152e07515fe8fb94719eb53301aa8 OP_EQUALVERIFY OP_CHECKSIG", "desc": "addr(mj5mFK1PmTJS4NsWCYgvNFwyoPHFs3CCqi)#m6s4pkfm", "hex": "76a914271ce1dcfc0152e07515fe8fb94719eb53301aa888ac", "address": "mj5mFK1PmTJS4NsWCYgvNFwyoPHFs3CCqi", "type": "pubkeyhash"}}, {"value": 0.2499, "n": 1, "scriptPubKey": {"asm": "OP_DUP OP_HASH160 e2db3f359ce01b1db3b69eb5a9f631f38af5ea1e OP_EQUALVERIFY OP_CHECKSIG", "desc": "addr(n2CTex4hHhmMPK3MGD5SyjKopHGS8MkY1Y)#wuvv5a75", "hex": "76a914e2db3f359ce01b1db3b69eb5a9f631f38af5ea1e88ac", "address": "n2CTex4hHhmMPK3MGD5SyjKopHGS8MkY1Y", "type": "pubkeyhash"}}], "hex": "0200000001d9f41525dd76af44a57718ebc635f3f9b8e7d650d701e9d7e5be2f7c9b104830000000006a4730440220487af36e6e36125c07dd09b8b65fe64c6af686e51c656fc4577b649acb966c1a02200c64da187aa96e92037b11d60ae85fe26950dd64e088d14db2ccd010bb4311a6012103a1f80d1fdf46751ac19be52c30adfc62b681d7a625e35b93f525e50eeebd7d4afdffffff0240787d01000000001976a914271ce1dcfc0152e07515fe8fb94719eb53301aa888ac30517d01000000001976a914e2db3f359ce01b1db3b69eb5a9f631f38af5ea1e88ac00000000", "blockhash": "7d5f3a1d3a63dcec7c8a849f9cc2a636c6bd8a0e9f1a077581e427d5e9a53474", "confirmations": 1, "time": 1742724580, "blocktime": 1742724580}
Complete transaction from B to C:
{'txid': 'e12541902639b5992110235a9b538477b650745ef7041385cf1769222c72d860', 'hash': 'e12541902639b5992110235a9b538477b650745ef7041385cf1769222c72d860', 'version': 2, 'size': 225, 'vsize': 225, 'weight': 900, 'locktime': 0, 'vin': [{'txid': '3048109b7c2fbee5d7e901d750d6e7b8f9f335c6eb1877a544af76dd2515f4d9', 'vout': 0, 'scriptSig': {'asm': '30440220487af36e6e36125c07dd09b8b65fe64c6af686e51c656fc4577b649acb966c1a02200c64da187aa96e92037b11d60ae85fe26950dd64e088d14db2ccd010bb4311a6[ALL] 03a1f80d1fdf46751ac19be52c30adfc62b681d7a625e35b93f525e50eeebd7d4a', 'hex': '4730440220487af36e6e36125c07dd09b8b65fe64c6af686e51c656fc4577b649acb966c1a02200c64da187aa96e92037b11d60ae85fe26950dd64e088d14db2ccd010bb4311a6012103a1f80d1fdf46751ac19be52c30adfc62b681d7a625e35b93f525e50eeebd7d4a'}, 'sequence': 4294967293}], 'vout': [{'value': Decimal('0.25000000'), 'n': 0, 'scriptPubKey': {'asm': 'OP_DUP OP_HASH160 271ce1dcfc0152e07515fe8fb94719eb53301aa8 OP_EQUALVERIFY OP_CHECKSIG', 'desc': 'addr(mj5mFK1PmTJS4NsWCYgvNFwyoPHFs3CCqi)#m6s4pkfm', 'hex': '76a914271ce1dcfc0152e07515fe8fb94719eb53301aa888ac', 'address': 'mj5mFK1PmTJS4NsWCYgvNFwyoPHFs3CCqi', 'type': 'pubkeyhash'}}, {'value': Decimal('0.24990000'), 'n': 1, 'scriptPubKey': {'asm': 'OP_DUP OP_HASH160 e2db3f359ce01b1db3b69eb5a9f631f38af5ea1e OP_EQUALVERIFY OP_CHECKSIG', 'desc': 'addr(n2CTex4hHhmMPK3MGD5SyjKopHGS8MkY1Y)#wuvv5a75', 'hex': '76a914e2db3f359ce01b1db3b69eb5a9f631f38af5ea1e88ac', 'address': 'n2CTex4hHhmMPK3MGD5SyjKopHGS8MkY1Y', 'type': 'pubkeyhash'}}], 'hex': '0200000001d9f41525dd76af44a57718ebc635f3f9b8e7d650d701e9d7e5be2f7c9b104830000000006a4730440220487af36e6e36125c07dd09b8b65fe64c6af686e51c656fc4577b649acb966c1a02200c64da187aa96e92037b11d60ae85fe26950dd64e088d14db2ccd010bb4311a6012103a1f80d1fdf46751ac19be52c30adfc62b681d7a625e35b93f525e50eeebd7d4afdffffff0240787d01000000001976a914271ce1dcfc0152e07515fe8fb94719eb53301aa888ac30517d01000000001976a914e2db3f359ce01b1db3b69eb5a9f631f38af5ea1e88ac00000000', 'blockhash': '7d5f3a1d3a63dcec7c8a849f9cc2a636c6bd8a0e9f1a077581e427d5e9a53474', 'confirmations': 1, 'time': 1742724580, 'blocktime': 1742724580} 

Analysis:
Transaction ID from A to B: 3048109b7c2fbee5d7e901d750d6e7b8f9f335c6eb1877a544af76dd2515f4d9
Transaction ID from B to C: e12541902639b5992110235a9b538477b650745ef7041385cf1769222c72d860
Raw Transaction Hex A to B: 0200000001a2f4e4afacb3d24b228fc17896189e495dd5b1ac997de8432c3928fc958b1e590100000000fdffffff0280f0fa02000000001976a914e2db3f359ce01b1db3b69eb5a9f631f38af5ea1e88ac70c9fa02000000001976a91454c88d9c796cc9e6ddf4af4215506c6821376c0f88ac00000000
Raw Transaction Hex B to C: 0200000001d9f41525dd76af44a57718ebc635f3f9b8e7d650d701e9d7e5be2f7c9b1048300000000000fdffffff0240787d01000000001976a914271ce1dcfc0152e07515fe8fb94719eb53301aa888ac30517d01000000001976a914e2db3f359ce01b1db3b69eb5a9f631f38af5ea1e88ac00000000
ScriptPubKey (locking script) from A to B: 76a914e2db3f359ce01b1db3b69eb5a9f631f38af5ea1e88ac
ScriptSig (unlocking script) from B to C: 4730440220487af36e6e36125c07dd09b8b65fe64c6af686e51c656fc4577b649acb966c1a02200c64da187aa96e92037b11d60ae85fe26950dd64e088d14db2ccd010bb4311a6012103a1f80d1fdf46751ac19be52c30adfc62b681d7a625e35b93f525e50eeebd7d4a
Use Bitcoin Debugger to validate these scripts.

(bitcoin_env) nipun-samal@nipun-samal-HP-Pavilion-Laptop-14-ec1xxx:~/Downloads$ 
